{
    "contractName": "BasicNft",
    "abi": [
        {
            "inputs": [],
            "name": "aga",
            "outputs": [
                {
                    "internalType": "uint256",
                    "name": "",
                    "type": "uint256"
                }
            ],
            "stateMutability": "view",
            "type": "function"
        }
    ],
    "bytecode": "608080604052346013576074908160188239f35b5f80fdfe60808060405260043610156011575f80fd5b5f3560e01c63b1c85940146023575f80fd5b34603a575f366003190112603a576020905f548152f35b5f80fdfea2646970667358221220609fdef793a4c3d931b37448815dfe979afe4ff1ff4beb255b427fe3923c8a1064736f6c634300081b0033",
    "sourcePath": "/Users/fabiandiaz/github-repos/foundry-nft-f23/src/BasicNft.sol",
    "compiler": {
        "name": "solc",
        "version": "0.8.27+commit.40a35a09"
    },
    "functionHashes": {
        "aga()": "b1c85940"
    },
    "gasEstimates": {
        "creation": {
            "codeDepositCost": "23200",
            "executionCost": "81",
            "totalCost": "23281"
        },
        "external": {
            "aga()": "2241"
        }
    }
}